:020000040000fa
:080000000002040000000000f2
:020000040000fa
:04000800e202000010
:020000040000fa
:04000c00d8230000f5
:020000040000fa
:04001000ea230000df
:020000040000fa
:04001400e0230000e5
:020000040000fa
:04001800f2230000cf
:020000040000fa
:04001c00e2020000fc
:020000040000fa
:04002000e2020000f8
:020000040000fa
:04002400e2020000f4
:020000040000fa
:04002800e2020000f0
:020000040000fa
:04002c00e2020000ec
:020000040000fa
:04003000e2020000e8
:020000040000fa
:04003400ce220000d8
:020000040000fa
:04003800e2020000e0
:020000040000fa
:04003c00e2020000dc
:020000040000fa
:04004000e2020000d8
:020000040000fa
:04004400e2020000d4
:020000040000fa
:04004800e2020000d0
:020000040000fa
:04004c00e2020000cc
:020000040000fa
:04005000e2020000c8
:020000040000fa
:04005400c0190000cf
:020000040000fa
:040058005e1900002d
:020000040000fa
:04005c00e2020000bc
:020000040000fa
:04006000e2020000b8
:020000040000fa
:04006400e2020000b4
:020000040000fa
:04006800e2020000b0
:020000040000fa
:04006c00e2020000ac
:020000040000fa
:04007000e2020000a8
:020000040000fa
:04007400e2020000a4
:020000040000fa
:04007800ac020000d6
:020000040000fa
:04007c00e20200009c
:020000040000fa
:04008000e202000098
:020000040000fa
:04008400e202000094
:020000040000fa
:04008800e202000090
:020000040000fa
:04008c00e20200008c
:020000040000fa
:04009000e202000088
:020000040000fa
:04009400e202000084
:020000040000fa
:04009800e202000080
:020000040000fa
:04009c00e20200007c
:020000040000fa
:0400a000e202000078
:020000040000fa
:0400a400e202000074
:020000040000fa
:0400a800e202000070
:020000040000fa
:0400ac00e20200006c
:020000040000fa
:0400b000e202000068
:020000040000fa
:0400b400e202000064
:020000040000fa
:0400b800e202000060
:020000040000fa
:0400bc00e20200005c
:020000040000fa
:0400c000e202000058
:020000040000fa
:0400c400e202000054
:020000040000fa
:0400c800e202000050
:020000040000fa
:0400cc00e20200004c
:020000040000fa
:0400d000e202000048
:020000040000fa
:0400d400e202000044
:020000040000fa
:0400d800e202000040
:020000040000fa
:0400dc00e20200003c
:020000040000fa
:0400e000e202000038
:020000040000fa
:0400e400e202000034
:020000040000fa
:0400e800e202000030
:020000040000fa
:0400ec00e20200002c
:020000040000fa
:0400f000e202000028
:020000040000fa
:0400f400e202000024
:020000040000fa
:0400f800e202000020
:020000040000fa
:0400fc00e20200001c
:020000040000fa
:04010000e202000017
:020000040000fa
:04010400e202000013
:020000040000fa
:04010800e20200000f
:020000040000fa
:04010c00e20200000b
:020000040000fa
:04011000e202000007
:020000040000fa
:04011400e202000003
:020000040000fa
:04011800e2020000ff
:020000040000fa
:04011c00e2020000fb
:020000040000fa
:04012000e2020000f7
:020000040000fa
:04012400e2020000f3
:020000040000fa
:04012800e2020000ef
:020000040000fa
:04012c00121a0000a3
:020000040000fa
:04013000e2020000e7
:020000040000fa
:04013400e2020000e3
:020000040000fa
:04013800e2020000df
:020000040000fa
:04013c00e2020000db
:020000040000fa
:04014000e2020000d7
:020000040000fa
:04014400e2020000d3
:020000040000fa
:04014800e2020000cf
:020000040000fa
:04014c00e2020000cb
:020000040000fa
:04015000e2020000c7
:020000040000fa
:04015400e2020000c3
:020000040000fa
:04015800e2020000bf
:020000040000fa
:04015c00e2020000bb
:020000040000fa
:04016000e2020000b7
:020000040000fa
:04016400e2020000b3
:020000040000fa
:04016800e2020000af
:020000040000fa
:04016c00e2020000ab
:020000040000fa
:04017000e2020000a7
:020000040000fa
:04017400e2020000a3
:020000040000fa
:04017800e20200009f
:020000040000fa
:04017c00e20200009b
:020000040000fa
:04018000e202000097
:020000040000fa
:04018400e202000093
:020000040000fa
:04018800e20200008f
:020000040000fa
:04018c00e20200008b
:020000040000fa
:04019000e202000087
:020000040000fa
:04019400e202000083
:020000040000fa
:04019800e20200007f
:020000040000fa
:04019c00e20200007b
:020000040000fa
:04020800e20200000e
:020000040000fa
:04020c00e20200000a
:020000040000fa
:04021000e202000006
:020000040000fa
:04021400e202000002
:020000040000fa
:04021800e2020000fe
:020000040000fa
:04021c00e2020000fa
:020000040000fa
:04022000e2020000f6
:020000040000fa
:04022400e2020000f2
:020000040000fa
:04022800e2020000ee
:020000040000fa
:04022c00e2020000ea
:020000040000fa
:04023000e2020000e6
:020000040000fa
:04023400e2020000e2
:020000040000fa
:04023800e2020000de
:020000040000fa
:04023c00e2020000da
:020000040000fa
:04024000e2020000d6
:020000040000fa
:04024400e2020000d2
:020000040000fa
:04024800e2020000ce
:020000040000fa
:04024c00e2020000ca
:020000040000fa
:04025000e2020000c6
:020000040000fa
:04025400e2020000c2
:020000040000fa
:04025800e2020000be
:020000040000fa
:04025c00e2020000ba
:020000040000fa
:04026000e2020000b6
:020000040000fa
:04026400e2020000b2
:020000040000fa
:04026800e2020000ae
:020000040000fa
:04026c00e2020000aa
:020000040000fa
:04027000e2020000a6
:020000040000fa
:04027400e2020000a2
:020000040000fa
:04027800e20200009e
:020000040000fa
:04027c00e20200009a
:020000040000fa
:04028000e202000096
:020000040000fa
:04028400e202000092
:020000040000fa
:04028800e20200008e
:020000040000fa
:04028c00e20200008a
:020000040000fa
:04029000e202000086
:020000040000fa
:04029400e202000082
:020000040000fa
:04029800e20200007e
:020000040000fa
:04029c00e20200007a
:020000040000fa
:0402a000e202000076
:020000040000fa
:0402a400e202000072
:020000040000fa
:0402a800e20200006e
:020000040000fa
:0402ac00e20200006a
:020000040000fa
:0402b000e202000066
:020000040000fa
:0402b400e202000062
:020000040000fa
:0402b800e20200005e
:020000040000fa
:0402bc00e20200005a
:020000040000fa
:0402c000e202000056
:020000040000fa
:0402c400e202000052
:020000040000fa
:0402c800e20200004e
:020000040000fa
:0402cc00e20200004a
:020000040000fa
:0402d000e202000046
:020000040000fa
:0402d400e202000042
:020000040000fa
:0402d800e20200003e
:020000040000fa
:0402dc00e20200003a
:020000040000fa
:0402e000e202000036
:020000040000fa
:0402e400e202000032
:020000040000fa
:0402e800e20200002e
:020000040000fa
:0402ec00e20200002a
:020000040000fa
:0402f000e202000026
:020000040000fa
:0402f400e202000022
:020000040000fa
:0402f800e20200001e
:020000040000fa
:0402fc00e20200001a
:020000040000fa
:04030000e202000015
:020000040000fa
:04030400e202000011
:020000040000fa
:04030800e20200000d
:020000040000fa
:04030c00e202000009
:020000040000fa
:04031000e202000005
:020000040000fa
:04031400e202000001
:020000040000fa
:04031800e2020000fd
:020000040000fa
:04031c00e2020000f9
:020000040000fa
:04032000e2020000f5
:020000040000fa
:04032400e2020000f1
:020000040000fa
:04032800e2020000ed
:020000040000fa
:04032c00e2020000e9
:020000040000fa
:04033000e2020000e5
:020000040000fa
:04033400e2020000e1
:020000040000fa
:04033800e2020000dd
:020000040000fa
:04033c00e2020000d9
:020000040000fa
:04034000e2020000d5
:020000040000fa
:04034400e2020000d1
:020000040000fa
:04034800e2020000cd
:020000040000fa
:04034c00e2020000c9
:020000040000fa
:04035000e2020000c5
:020000040000fa
:04035400e2020000c1
:020000040000fa
:04035800e2020000bd
:020000040000fa
:04035c00e2020000b9
:020000040000fa
:04036000e2020000b5
:020000040000fa
:04036400e2020000b1
:020000040000fa
:04036800e2020000ad
:020000040000fa
:04036c00e2020000a9
:020000040000fa
:04037000e2020000a5
:020000040000fa
:04037400e2020000a1
:020000040000fa
:04037800e20200009d
:020000040000fa
:04037c00e202000099
:020000040000fa
:04038000e202000095
:020000040000fa
:04038400e202000091
:020000040000fa
:04038800e20200008d
:020000040000fa
:04038c00e202000089
:020000040000fa
:04039000e202000085
:020000040000fa
:04039400e202000081
:020000040000fa
:04039800e20200007d
:020000040000fa
:04039c00e202000079
:020000040000fa
:100400002fbd20000e7f24000e0188000000000098
:10041000000020000000e000020032000001200087
:10042000200288000c000700a01e2200010020000e
:1004300011000700000020000000e0000200320070
:100440000000020000000000842302000000000001
:100450000040da000000fe004440a90060272000b0
:100460000000e0000300320000002000a00188002e
:100470004440a80000000600910188008000780038
:100480000000eb0015003700e280400032a0b4000d
:100490009101ba00e280400032a0b4009102ba009b
:1004a000e280400032a0b4000002eb00472bde00e7
:1004b000f507b200602ce10004003a000059eb009f
:1004c0008301e900fdff3e00040037006128e100e0
:1004d000010032000082eb000b00070011c3ba00dc
:1004e0001101ba000604e00003003a000200e00037
:1004f000e5ff3a0000000600f607b200960188000a
:1005000082007800f5ff37003159ba008301e90015
:100510000c0032002159ba008301e90008003200c2
:100520000400e00003003a00e280400032a0b40082
:10053000f5ff370011d9ba008301e900faff3a004c
:100540008100e800e180400032a0b4000000060015
:10055000c604040000000000809fbe00821f7800d7
:100560000000fa00a01680004400de006140600038
:100570000004a200614060000080fb006100600098
:100580004400dd00a2168000f1fe2f008100610012
:1005900001007000a01688008680a9000080fa0083
:1005a0004f0178004f00be00004006000000fa0036
:1005b0008680a9008220a8009680a8000080fa000a
:1005c000000006000040da000000fe008001780014
:1005d00002003700b15978000201e9000200e00092
:1005e000fcff3a000000060000017800b1417800ed
:1005f000035978000304e000fcff3a000000060005
:1006000080007800010178003104e000fdff3a002d
:1006100000005100000006000c003700b0417800d7
:10062000b1cf510006003200100020009542780042
:1006300094cf52000b0031000080eb000000060058
:100640000304e000060032000201e9000102780024
:10065000800278000200e000f0ff3a000000050090
:100660000000eb0000000600889fbe0081047800b7
:100670000000e00002003a00685e800001003700e0
:10068000000478000800be00da02070000044400fd
:100690001804e00004003a00a0bc2000605e88005e
:1006a0000004eb00070037000800be00c00207008e
:1006b000000044001004e000010032000058eb008c
:1006c000605e8800080078004f04be00000006004d
:1006d000ee874700889fbe008a9fbe008c9fbe00a9
:1006e0008e1f7800f0b79f00010678008205780021
:1006f00000047800080578000a047800b8467800fd
:100700000d00fb008c0007000000e000f9ff3a003c
:10071000d0c2b30080cf56000300320000c0e90011
:1007200080cf560002003a000a05e80001003700b9
:10073000804678000b00e00005003500e18f550091
:100740000300320040022000808f55000600340074
:100750006044b8000c00e000700032007fb09700e9
:10076000000e78006d0037000b00e0000e00320034
:10077000f08f55001a003a0000c3b3009a4f1000e2
:1007800017003a001a40900081c7b300814f500013
:100790000300320081c5b300814f500010003a00c1
:1007a0000a85e8000e003700ab00200000c3b3004c
:1007b0009a4f10000a003a001a40900081c7b30017
:1007c000814f5000040032008b00200081c5b3002f
:1007d000814f500002003a000a85e8000b0120001a
:1007e0000a007800000278000400780001c3b3001a
:1007f000b0cf1000fbff3200040778006044b8005f
:10080000b4b79f000d00370041ae2000814050007a
:10081000c1ef9f006159b9000800be0094040700b1
:100820004fea97000401fb00cf91de00c8b79f009c
:10083000d9b79f0002044000838448008e027800ec
:100840003e00fb0085bf9f00430007000b017800be
:100850008000780040ae20003f0207008fba97006a
:100860000000e000e8ff3a003fb29700850f550016
:1008700005003a006044b8000c00e0002700320098
:10088000ffb29700240037000482520090b020008d
:1008900060c07d000000fb00000252001700330022
:1008a00011003a004fe997000200fb00cf80de0004
:1008b0000000540081805c00800f5400818f5c0038
:1008c000090039006159b90085bf9f005504070030
:1008d0008fba97004fb19700dfb19700820f500099
:1008e000838f58000500320020022000705e8800cf
:1008f0000084eb008084eb0005003700d0c2b30019
:1009000080cf560002003a0060041400e0841c000e
:100910000c00e00001003200050e78000800be0067
:100920004f0778004f06be004f05be004f04be00c3
:10093000ef00b100000006006900e100040035008e
:100940006d00e100030034000002b100010032003c
:100950000000050010000500800078001104b100bf
:10096000030035009101b10001003c000050a000df
:1009700000000600805e80000000e0000100320000
:1009800000000100e0bc200000000600881f780085
:1009900002047800080178000cff070008004000fe
:1009a0004f047800000006000000fa00881f78005d
:1009b00000047800ea8157003fb99700880078006a
:1009c000604c2000070007000000e0000200350036
:1009d0008040eb00017478004f0478000080fa003a
:1009e000000006006200fa00889fbe008a1f78009f
:1009f0000005780081047800020478008300780004
:100a000080f92f000f004000f50307009a979f0020
:100a1000a9979f000000eb00b09f9f001885fb0086
:100a20008a04fb000a05ea004f55de005002200050
:100a3000808f54000d003200e10f55000b003a008a
:100a40000a017800880078002f9097009f91970006
:100a500003000100a0979f000000e0008e0032001c
:100a60003f9897000000e800b09f9f000a044400f0
:100a700050022000808f5400040032000900e00082
:100a8000e6ff3a003f989700840037000000eb0033
:100a9000909f9f00809f9f00f0979f00e0979f008e
:100aa000d0979f00c0979f000700370041bc2000ef
:100ab000010050000000400081bb20006100780070
:100ac000df98970001007000d09f9f008804780095
:100ad00009047800384578008a00fb0040bc2000fb
:100ae000a70107000000e000f0ff3a00a1c2b30038
:100af000814f55000e003a00cf8897000180e90031
:100b0000c08f9f0010007800c09f9f000000e00091
:100b100005003d000000ea00c09f9f005f9897001d
:100b20000020a000d09f9f000904e8000f003700bc
:100b3000c09f9f000000eb0005003700f2ff270078
:100b4000820f5000020032006a01b90002804000aa
:100b50000904780088047800b900fb000103b100a3
:100b6000e98f5000f5ff3600c09f9f00e0c2b30040
:100b7000984f1000020032000080eb00190037008f
:100b8000a0c2b300d84f100007003a00cf889700ea
:100b90000180e900c08f9f0010007800a09f9f0097
:100ba0000804e800100037000000eb00a09f9f0041
:100bb0008800780005003700f3ff2700830f5000fe
:100bc000020032006a02b90004004100010478000a
:100bd000880078003101fb000203b100e90f5100e9
:100be000f5ff3600a09f9f00984478008900fb0025
:100bf00000bb2000620107000000e000020032009c
:100c00000804e800010037008044eb00c97f9f0022
:100c100080c6b30080cf540004003a0098cf14007f
:100c20000a003a006640500006003700c0c6b30014
:100c300080cf540005003a0098cf140003003a001a
:100c400065404000c07f9f000804e8001801fb00d9
:100c5000e3fb2f008f81410081f92f008f8040003e
:100c6000a0f92f000f004000100007000000e00076
:100c700009003a00e1fb2f008f804000a0f92f000f
:100c80000f0040009a0207000000e000020035005b
:100c90000804e80061ff37000080eb004f05780092
:100ca0004f04be000080fa0000000600889fbe00ce
:100cb0008a1f780000047800e0c6b300804f51001e
:100cc000c100320015003c006b405000804f5100c5
:100cd000240032000a003c0070405000804f510058
:100ce000fa00320065404000804f51006800320039
:100cf00050c2b300804f51000b013a00070137008a
:100d000040c6b300804f51001b00320065404000d8
:100d1000804f510004013a001700370030c7b3007c
:100d2000804f5100e900320007003c006440500051
:100d3000804f5100560032000040e800804f5100c3
:100d4000f9003a00d300370050c7b300804f51007c
:100d50004f00320063404000804f5100f2003a00e3
:100d60004b0037001181e90082087800780090007c
:100d700012417800ea00370028609000c4c6b30032
:100d8000844f500007003a001102780064005200be
:100d9000800878001002be004fabde0086037800aa
:100da0001100370014c7b300844f50000300320015
:100db000a4c6b300844f500006003a001102780028
:100dc00068005200800878003002be002003be0098
:100dd000050037001180e9008008780010027800d3
:100de000cfa2de00612bb900049cbe000694be00b9
:100df0002860900081c6b300814f50000d00320082
:100e000021c6b300814f500004003a000402fb00e9
:100e1000cfa2de00612bb9000800370041c7b30044
:100e2000814f500003003200e6c04000814f500067
:100e300004003a00cfa2de00612bb900049cbe0082
:100e40000694be003802be002803be007800900061
:100e5000d1c2b300e00f5200e08f5a00e00f5b00f8
:100e6000e08f5b0008003500881090000118a30097
:100e700002003200b1c2b300030037000108a30032
:100e80004c00320001c2b300817178004700370086
:100e900028609000c4c6b300844f500006003a009a
:100ea0001102780064005200800878001002be0031
:100eb0006033b8001100370014c7b300844f5000ee
:100ec00003003200a4c6b300844f500006003a006d
:100ed0001102780068005200800878003002be00dd
:100ee0002003be00050037001180e900800878006b
:100ef000100278008002eb006033b800049cbe0052
:100f00000694be002860900081c6b300814f500057
:100f10000d00320021c6b300814f500004003a009a
:100f20000482fb008002eb006033b8000800370049
:100f300041c7b300814f500003003200e6c04000bb
:100f4000814f500004003a008002eb006033b8008b
:100f5000049cbe000694be00081090000038a30058
:100f6000140032003802be002803be00e00f520019
:100f7000e08f5a00e00f5b00e08f5b000d00320055
:100f800080c7b300804f51000300320080c5b3001a
:100f9000804f510007003a007800900001c3b30071
:100fa000817178000000e800827178000000e8009c
:100fb00070049800780090008081410063049800dc
:100fc000824078003e00370028619000c3c6b3001d
:100fd0001180e900834f5100220032000a003c00da
:100fe000e4c15100834f51002500320083c1e80065
:100ff000834f510013003200e8c15100834f51006c
:101000001e003a000a00370043c7b300834f510067
:101010001b003200e6c14100834f5100180032002e
:10102000e9c15100834f510014003a000500370018
:101030008008780010007800485c9000084878002c
:10104000410037008008780010007800680a90009e
:10105000cfa2de00612bb9000498be000690be004e
:101060003900370080087800100078006809900087
:10107000cf91de000288be00330037001180e90006
:101080008008780010007800680c9000080878004c
:101090002d0037001180e9008008780010027800e8
:1010a000cfa2de00612bb900049cbe000694be00f6
:1010b00078009000808141006304980081c7b300ec
:1010c000080078005b0007001f0037001180e9006e
:1010d00080087800100578006a049800d80c900009
:1010e0000900e00004003d000a00780044fd07000c
:1010f0008004780007003700090178008000eb00c9
:101100000a007800140007000000e000010032002f
:101110008a045000190c98000b00370078009000ea
:1011200082717800060037007800900080814100cd
:101130000204e00001003a0052c2b3008249780084
:101140000000e800700498000000eb004f057800f4
:101150004f04be000000060003003700b0cf1000af
:10116000050032000201e900800178000200e00081
:10117000faff3a00000005000300780000000600b6
:10118000020037000304e00006003200000178008e
:1011900002007800b041780081cf5100f9ff3a0099
:1011a000010037000001eb0002007800000006009b
:1011b000000178000700370086cf520002003a0095
:1011c0000080510000000600344378000604e0006f
:1011d000f9ff3a0082017800b24278000504e0008d
:1011e0000200320001027800f7ff37000080510052
:1011f0000000060000017800080037008102780036
:10120000354378000604e00002003a0000805100f7
:1012100000000600864f5200f9ff3a008201780074
:10122000324278000404e000f4ff3a0000805100ec
:1012300000000600fc874700889fbe008a9fbe0012
:101240008c9fbe008e1f78000006780080c5b3001a
:1012500080cf50000a0032007740400080cf50001d
:101260000a0032006940400080cf50000b0032007d
:10127000f0b7200080bf9f00ae0020000a003700ba
:10128000e2b6200082bf9f0006003700f3b72000bf
:1012900083bf9f008e00200003003700f4b72000ba
:1012a00084bf9f000e0120003c02be002c03be0044
:1012b0000605be000404be0040c6b30080cf500047
:1012c000030032006540400080cf50000b003a0020
:1012d000e00f5200e08f5a00e00f5b00e08f5b00f0
:1012e00006003d006000b8006011b8000404500022
:1012f000858458000605590087855900e80f570076
:101300000400320040002000f00f570038003a007f
:101310000100370030002000e00f5400e08f5c0037
:10132000e00f5d00e08f5d0004003a00dc089000f3
:101330008d0120000100e000060032008e00e9006f
:10134000888060008fba9700e5c07800f1ef9f00b9
:101350007d012000800078008100e9000500330055
:101360008b05d1000a85d3008984d3000884d3007b
:10137000f9ff3700089ebe000a96be001200370033
:101380008d06e9008e00e900848060000fb99700a7
:10139000e2c1780082fd2f000f01410003f17e00c1
:1013a000800078008100e900050033008783d100c8
:1013b0000683d3008582d3000482d300f9ff37006f
:1013c000049ebe000696be003c02be002c03be007a
:1013d000e00f5200e08f5a00e00f5b00e08f5b00ef
:1013e0008b0034000d00e000e5ff3c008800370072
:1013f0002c60900081c6b300814f50000b0032007a
:1014000006003c000004e00008003200e6c0500086
:10141000814f50004e003a0004003700c1c6b300af
:10142000814f50004a003a00210037000800e000d8
:1014300004003a005c0890008d0120000000e000ec
:1014400006003200110009000e84d8000fb9970081
:10145000e2c07800f1ef9f007d012000110009003b
:101460000e84d8000a003700110009000e04d800cd
:101470008d06e9000e81b900020454008fb8970070
:1014800061417c0081fd2f008f80400082f07e0052
:10149000000478000800e000020032000d00e000c7
:1014a000f1ff3c00cfc4de00614db90025003700dc
:1014b000e00f5400e08f5c0004003a005c089000ec
:1014c0008d0120000000e000070032006171b900ca
:1014d0000800be00630107008fb99700e341780060
:1014e000f3ef9f007d0120006171b9000800be008c
:1014f0004c0107000b0037006171b9000800be0005
:10150000390107008d06e90000f1b900020454001a
:101510000fba9700e4427c0084fd2f000f024200c6
:1015200005f27e000004be00e00f5000e08f58007e
:10153000020032000d00e000efff3c004fcdde0066
:101540008a057800089ebe000a96be00300037006b
:10155000e00f5400e08f5c00e00f5d00e08f5d0065
:1015600004003a005c0890008d0120000000e000bb
:10157000090032006172b900612bb9000800be0099
:101580000a01be00e00107000fba9700644278002c
:10159000f4ef9f007d0120006172b900612bb9005a
:1015a0000800be000a01be00d00107000d00370090
:1015b0006172b900612bb9000800be000a01be00cb
:1015c000d50107008d06e90000f2b90004045400bb
:1015d0008fba970065427c0085fd2f008f82420004
:1015e00084f27e00009ebe000296be003c04be0057
:1015f0002c05be00e00f5400e08f5c00e00f5d00a2
:10160000e08f5d00020034000d00e000e8ff3c00c8
:10161000e80f570010003a000c1090000038a300ab
:101620000d003200f78f560006003e0085fd2f00aa
:101630008f824200e5c07e0000c3b30080cf50001f
:10164000050032008d06e90002c3b30081fd2f00c2
:101650008f80400082f07e0078811600120e980084
:101660006c00900083fd2f008f8141008d80410030
:10167000d6fb07001c089000dc089000810f50008a
:1016800006003d0000805000000e98000c109000f5
:101690000040a100001698000f0037000100e00094
:1016a0000d003d008c109000f4806000f08f500021
:1016b00009003a007c099000fc0090008100510074
:1016c0000c09900082805000008050004240a90028
:1016d00001003400000e98004f0778004f06be004e
:1016e0004f05be004f04be00cf01b1000000060050
:1016f0000400fa00889fbe008a9fbe008c1f7800fd
:101700000004780001067800f80d90007800900041
:1017100080855500080890008085550018089000c5
:101720008085550028089000808555003808900075
:1017300080855500480890008085550000022200f1
:1017400090bf9f0000032300a0bf9f0008109000df
:101750000028a30015003a000b00e000130034003d
:101760000b0578008a047800e20f5500010036006e
:1017700029002000c801900009017800ee80570080
:101780005800900003000100500498000000e000a1
:101790008c0032006808900009004000600c98003e
:1017a000090555004240a900eeff3c007801900079
:1017b0000200e0000c003400c80190008c007800aa
:1017c0005800900003000100500498008080eb0056
:1017d0000000e0007c003200e808900078009000f3
:1017e00000804000600c9800880c90000900e00028
:1017f0001100340009057800e28f54000100360022
:101800002a002000c80190000a017800ec805700ef
:101810005800900003000100500498000000e00010
:1018200068003200680890000a004000600c9800d0
:101830008a845400edff3700180990000200e00090
:101840000c003400c8019000e8009000580090009f
:1018500003000100500498008080eb000000e000cd
:1018600059003200e80890001808900000804000fd
:10187000600c9800a80c90000900e00011003400f2
:1018800009057800e28f5400010036002a0020008c
:10189000c80190000a017800ec80570058009000c1
:1018a00003000100500498000000e00045003200f1
:1018b000680890000a004000600c98008a84540078
:1018c000edff3700380990000200e0000e00340000
:1018d000e80090001808900080804000c801900047
:1018e0005800900003000100500498008080eb0035
:1018f0000000e00034003200e80890003808900052
:1019000000804000600c9800c80c90000900e000c6
:101910001100340009057800e28f54000100360000
:101920002a002000c80190000a017800ec805700ce
:101930005800900003000100500498000000e000ef
:1019400020003200680890000a004000600c9800f7
:101950008a845400edff3700081090008000eb00ef
:101960000028a300180032000b00e000160034002d
:101970008b04780009057800e28f540001003600de
:101980002a002000c80190000a017800ee8057006c
:101990005800900003000100500498000000e0008f
:1019a00008003200680890000a004000600c9800af
:1019b0008a8454004240a900eeff3c008000eb0006
:1019c000010037008080eb00010078004f067800ae
:1019d0004f05be004f04be000080fa000000060064
:1019e0000108780000000600839f68000100e00005
:1019f00002003d0060001000e08018000300e000dd
:101a000002003d0060011100e0811900050007009f
:101a10004f00e00002003b0060001000e080180072
:101a2000000006006022b800060220000000d0007e
:101a30008180d2000482d2008582d2000000a00002
:101a40000202520083825a00030031000202420067
:101a500083824a000000a1000603e900f3ff3a0078
:101a600000000600efff07000400be0000000600b3
:101a7000020ab900001bb9000200b8008100420050
:101a80008100430000000600889fbe008a9fbe00c0
:101a900030044200b0844a0030054b0090854b0072
:101aa0006000b1000898be000a90be000440e1004a
:101ab00005c8e10006d0e10007d8e10002003100ce
:101ac000680040001008e8004f05be004f04be004b
:101ad00000000600889fbe008a9fbe003004be0042
:101ae0002005be000418540005985c0006185d002f
:101af00007985d00110020000440e10005c8e100e6
:101b000006d0e10007d8e100010039008000eb00b9
:101b1000108810004f05be004f04be0000000600f4
:101b20001200fa00889fbe008a9fbe008c9fbe00f4
:101b3000e0b79f00f1b79f0082bf9f0093bf9f0057
:101b40000605be000404be000000eb00d0b79f00f5
:101b5000c0b79f00b0b79f00a0b79f0090b79f008d
:101b60000006eb005fb19700cfb097008201410003
:101b70003fb097000200e00004003d00370007007e
:101b80007e805700c0ff07000300370033000700c6
:101b90007e805700cfff0700dfb697000d00e00002
:101ba0000c0035006fb29700ffb297000fbb970093
:101bb0009fbb970010002000010020006011b800ba
:101bc000000272008182720002037300838373003b
:101bd0001b0007000c06e80001042000810f5600de
:101be000e0ff3a000d00e00004003d000802be00e6
:101bf0000a03be007e805700a3ff07005fa897007e
:101c00000000e00005003a001fb29700afb2970055
:101c10003fb39700cfb39700090007006fb097005c
:101c2000ffb097000fb997009fb997004f06be000d
:101c30004f05be004f04be000080fa000000060001
:101c40000100070000000600a4b79f00b5b79f0081
:101c5000c6b79f00d7b79f00000006004f09de00ff
:101c600082817100b3b79f004f01de008180400088
:101c700082807000a1b79f008fb097004f09de00ef
:101c8000000040000200700090b79f007fa89700fe
:101c90004f01de00818040008280700081b79f008c
:101ca0000d0007004f3ade00000040000400700005
:101cb000f0af9f00080007000402420085824a003e
:101cc00006034b0087834b00dfff07000802be00be
:101cd0000a03be00000006002fb29700bfb29700b3
:101ce0004fb39700dfb3970000000600881f78000d
:101cf00018002000881f780089ff07008f87e900ff
:101d00004f04780000000600801feb0084ff0700ee
:101d10008f87e90000000600889fbe008a9fbe00f2
:101d2000e00f5000e08f5800e00f5900e08f59009d
:101d30000c003d006044b8006055b800000054003d
:101d400081805c0002015d0083815d00180020003d
:101d50001500070008003d00180007000004eb0014
:101d6000050037000004eb000f00070002003d00f3
:101d70001200070018002000dcff07000800e00048
:101d8000060032006022b8006033b8000000520044
:101d900081805a0002015b0083815b004f05be0019
:101da0004f04be0000000600e00f5200e08f5a0012
:101db000e00f5b00e08f5b00000006006044b800ad
:101dc0006055b8000402540085825c0006035d0083
:101dd00087835d0000000600889fbe008a9fbe00ca
:101de0008c1f7800e00f5000e08f5800e00f590082
:101df000e08f59000d003d006044b8006055b80008
:101e00000000540081805c0002015d0083815d0060
:101e10001c0020000820e10009a8e1000ab0e10050
:101e20000bb8e1000d003d00080037000006eb0094
:101e3000e00f5200e08f5a00e00f5b00e08f5b0084
:101e400006003d006044b8006055b800040254002c
:101e500085825c0006035d0087835d00aaff0700a2
:101e60000c00e000060032006022b8006033b800c9
:101e70000000520081805a0002015b0083815b00f8
:101e80004f0678004f05be004f04be00000006005c
:020000040000fa
:101e90002424000024000000617000006d6f000029
:101ea000646500000d0a0000002a00004f50000089
:101eb000454e00002a0000002a4300004c4f00005d
:101ec000532a0000004f00004b2000000a7e000053
:101ed0000000000000000000000000000000000002
:101ee00000000000000000000000000000000000f2
:101ef00000000000000000000000000000000000e2
:101f000000000000000000000000000000000000d1
:101f10000073000073690000640000004f4b000074
:101f20002025000073200000257300000a7e0000b9
:101f30000073000065630000007000006173000022
:101f400073000000737400006172000074240000cc
:101f5000776c0000616e0000004f00004b20000015
:101f6000257300000a7e00000031000039320000b5
:101f70002e310000363800002e3100002e310000d6
:101f80003034000000450000525200000a7e00007c
:101f9000000d00000a0000002a5200004541000028
:101fa000445900002a00000000000000657800008d
:101fb000697400000d0a0000004500005849000047
:101fc00054000000434d0000440000007361000015
:101fd000766500000d0a00000056000065720000e2
:101fe0006966000079200000636f00006e660000e3
:101ff000696700002064000061740000613a00001d
:1020000020730000756300006365000065640000d4
:1020100065640000006f0000706500006e20000025
:102020002573000020250000640d00000a00000058
:1020300072650000626f00006f7400000d0a0000fe
:10204000007300006574000020690000702000002b
:102050006468000063700000203100000d0a000079
:10206000004100004f4b0000007300006574000049
:10207000206400006863000070200000686f0000aa
:10208000737400006e6100006d6500002065000043
:102090004d6500007465000072570000462d000079
:1020a000584600004748000036370000353400002d
:1020b0000d0a000000730000657400002077000026
:1020c0006c6100006e200000737300006964000002
:1020d00020250000730d00000a0000007365000059
:1020e00074200000776c0000616e0000207000001a
:1020f0006872000061730000652000002573000015
:102100000d0a0000007300006574000020770000d5
:102110006c6100006e2000006175000074680000b2
:10212000203400000d0a00000073000065740000f8
:10213000207700006c6100006e2000006a6f0000d4
:10214000696e0000203100000d0a000000730000dd
:1021500065740000207300007973000020610000a6
:10216000757400006f6300006f6e00006e20000049
:10217000320d00000a0000007365000074200000aa
:102180006970000020700000726f0000746f000022
:10219000636f00006c2000003078000030380000d1
:1021a0000d0a000000730000657400002069000043
:1021b00070200000686f000073740000202500008c
:1021c000732000000d0a0000007300006574000019
:1021d0002069000070200000726500006d6f000033
:1021e0007465000020250000640d00000a00000056
:1021f00073630000616e00000d0a000000730000b0
:1022000065740000206300006f6d00006d20000009
:10221000696400006c650000203500000d0a0000b4
:102220000073000065740000206300006f6d000003
:102230006d2000006d6100007463000068200000e4
:102240003078000037650000203000000d0a0000e3
:102250000073000065740000207700006c610000ce
:102260006e2000006a6f0000696e000020370000d9
:102270000d0a00000073000065740000206100007a
:10228000706d00006f64000065200000636800004e
:10229000616e00006e6500006c200000360d0000cd
:1022a0000a000000736500007420000061700000e7
:1022b0006d6f00006465000020730000736900000a
:1022c00064200000257300000d0a00000073000068
:1022d0006574000020610000706d00006f640000f4
:1022e00065200000706100007373000070680000da
:1022f000726100007365000020250000730d00006e
:102300000a0000007365000074200000697000007e
:1023100020700000726f0000746f0000636f000097
:102320006c20000030780000303200000d0a000000
:1023300000000000736800006f7700002069000053
:10234000700d00000a0000005846000047480000d9
:102350003637000035340000006500004d65000090
:1023600074650000725f0000584600004748000096
:0c2370003637000035340000000000008b
:020000040000fa
:10237c000201fa000000eb00000f78009a0407003d
:10238c00620060000000e0000b00320000502300ef
:10239c00c100200048090700c504070001102000f7
:1023ac0000805000000f78009e0078000e80e8003e
:1023bc003f040700000000000080fa000000060047
:1023cc000400fa00100798000000eb00000f7800e2
:1023dc0085040700620060000000e0000d00320080
:1023ec0000502300c100200033090700b00407008f
:1023fc000110200000805000000f78001e007800b3
:10240c00800078001e0090002904070010c0b30063
:10241c00010037000040eb000080fa0000000600cd
:10242c002001fa006000b800008fbe00e4004700f5
:10243c007c0009008018eb008058eb0090f6280017
:10244c009040780071ff99008e0078000110b00068
:10245c001e0009008058eb000e007800d8ff070022
:10246c000004e000110032000e00780080007800bb
:10247c0050f52800a10007000004e0000300320022
:10248c00d482a80010c0b3000ee8b7000e0078008c
:10249c0080007800c0f52800980007000004e000d8
:1024ac0002003200d482a9000e68ef000ec8bf00f3
:1024bc000004e0000f003200f00f20000e0040007e
:1024cc006200200031f628003df80700f00f2000d4
:1024dc000e00400047f8070080007800f00f200045
:1024ec000e004000270407000010270021002000e8
:1024fc00f10807000080fa00000006008400fa00d2
:10250c0000879800118798006000b800008fbe000b
:10251c00e40047003d0009008018eb000e8090009d
:10252c004200200091f8280038f807000000e00075
:10253c0012003a009e809000c095200027f80700fa
:10254c000e0078009e809000811f78008e80900095
:10255c00811f7800e1f82800811f78000ff907002f
:10256c00e68757000e00780022f8070080007800fc
:10257c000e007800030407005e0037000e80900008
:10258c003200200091f9280020f807000000e0003c
:10259c0016003a001e809000a20020008000eb0084
:1025ac0048f8070080407800c09720000148780068
:1025bc000e0078009e809000811f78008e80900025
:1025cc00811f7800e1f82800811f7800f3f80700dc
:1025dc00e68757000e00780006f8070080007800a8
:1025ec000e007800e7030700420037000e809000d1
:1025fc0042002000d1f9280004f807000000e00098
:10260c0012003a009e809000d0972000f3f707004c
:10261c000e0078009e809000811f78008e809000c4
:10262c00811f7800e1f82800811f7800dbf8070093
:10263c00e68757000e007800eef707008000780060
:10264c000e007800cf0307002a0037000e809000a0
:10265c00a200200021fa2800ecf707000000e0009f
:10266c0019003a000e0078008e809000811f7800cf
:10267c00d1fa2800811f7800c8f80700e4875700ba
:10268c000e007800dbf70700800078000e00780061
:10269c00bc030700c097200010407800f4702200a3
:1026ac0053fb2800d297200080407800c095200072
:1026bc00830107000004a2000004e0000c003200bb
:1026cc00e90007000b0037000e00780062002000c4
:1026dc0031fc2800baf707000e007800c5f7070098
:1026ec00800078000e007800a60307000100370078
:1026fc00000000000080fa00000006000e01fa0045
:10270c005007990061079900ee009100110798009d
:10271c005e009100b7f70700300798006e0091003b
:10272c00b4f70700400798000000eb002007980062
:10273c000d0037001e00900010407800804078009b
:10274c006a0147002e00900000004100014878000b
:10275c002e0090000000e800200798001e0090005a
:10276c000000e80010079800ae0090004e009000aa
:10277c00808f5000efff35006a00470091fc280065
:10278c00b6f70700000f78000d0037003e009000f0
:10279c0000017800de0091001e0078009bf7070016
:1027ac000000e00002003a0010c0b300080037003f
:1027bc0091fc28000000eb00a8f70700000f780040
:1027cc001e0078000000e000f0ff3a000040eb0033
:1027dc000080fa00000006000801fa00300799009a
:1027ec000000eb00100798003e00910081f70700f5
:1027fc00200798007c030700620060000000e000e6
:10280c001c003200aa0307000110200000805000b9
:10281c00100798009e0090006600470024030700f4
:10282c006600470091fc28008cf70700000f780029
:10283c000d0037002e00900000017800be009100c2
:10284c001e00780071f707000000e00002003a005b
:10285c0010c0b3000800370091fc28000000eb000a
:10286c007ef70700000f78001e0078000000e000e3
:10287c00f0ff3a000040eb000080fa000000060078
:10288c000400fa001007980091fc28001e0090002c
:10289c0072f70700000f78000c0037007200200060
:1028ac00c1fc28001e00780058f707000000e0006b
:1028bc0002003a0010c0b3000800370091fc280059
:1028cc000000eb0065f70700000f78001e00780091
:1028dc000000e000f1ff3a000040eb000080fa003d
:1028ec00000006000c01fa004007990051079900fe
:1028fc000000eb00000f7800780707001007980025
:10290c000000eb00200798000040eb0060479800a7
:10291c002d00370034030700620060000000e00067
:10292c0029003200620307008000ea002e009000ac
:10293c00008050000010b000000f78001e007800de
:10294c000000e000100034006e4090000040e800f1
:10295c00604798000c0037002e00900040030700e1
:10296c0067014700ae00900081004100804878006c
:10297c001e0fe9002e0090000000e80020079800d0
:10298c0056070700100798001e0078000000e000b2
:10299c00f1ff3c007e4090000004e00002003a0091
:1029ac00e0c2b300704798006700470080007800d1
:1029bc004e00910051ff07000004e00002003200bd
:1029cc0010c0b300060037001e0090001d07070062
:1029dc00de009100810f5000ceff39000040eb006b
:1029ec000080fa00000006000600fa0010079800ac
:1029fc00210798000000eb00000f78001e009000eb
:102a0c00fcf60700800078001e009000dd02070035
:102a1c0000a0260081012000a7070700f202070092
:102a2c00620060000000e000090032002003070093
:102a3c000110200000805000000f78001e0078006c
:102a4c00800078002e0090009902070004003700e7
:102a5c002e0090001200200041fd2800d8f607003f
:102a6c000080fa00000006000000fa0060fd28005b
:102a7c0061002000c302070000f029004102200081
:102a8c008d070700d0fd280053ff07000004a200ab
:102a9c000004e000020032000040eb0004003700ac
:102aac0000a020008040eb000148780010c0b3006b
:102abc000080fa00000006000000fa000048280020
:102acc00e10120007c07070020408000310020003d
:102adc00ac02070000482800e1012000760707003f
:102aec00813e200020fe28007eff07000004a2008b
:102afc000004e00003003200e00107000040eb009e
:102b0c0002003700dd01070010c0b3000080fa009e
:102b1c00000006000000fa0010a020008040eb002e
:102b2c0001487800eda2a90000502300c10020004c
:102b3c0061070700eda2a800b101070000502300b7
:102b4c00c10020005c07070001712200c0fc2800b6
:102b5c0064ff07000004e0000c003200e14f80002d
:102b6c00f00f200080806000002020000100700029
:102b7c00e04f8800f14f800000f02f0000806000d3
:102b8c00f04f8800d482a80008003700e14f800085
:102b9c00f00f200000806000e04f8800f14f8000b3
:102bac0000f02f0000806000f04f8800b301070098
:102bbc000080fa00000006000000fa0060fe280009
:102bcc00610020006f02070000a026008101200098
:102bdc0039070700d0fe2800fffe07000004a20002
:102bec000004e000020032000040eb00010037005e
:102bfc0010c0b3000080fa00000006008600fa0046
:102c0c001087980021879800abff07000004a200f2
:102c1c000004e000020032000040eb001500370019
:102c2c000000eb00000f78000e80e800ae809000f2
:102c3c00811f78009e809000811f7800b1002900d0
:102c4c00811f780055f70700e68757000e80e800d3
:102c5c0068f60700000f78009e0078000e80e800f0
:102c6c004802070000a0260081012000120707007f
:102c7c0010c0b3000080fa00000006000000fa004b
:102c8c0080012900810020003e020700813e2000c7
:102c9c00c0fc280013ff07000004a2000004e000a1
:102cac0003003200750107000040eb000200370002
:102cbc007201070010c0b3000080fa00000006008b
:102ccc004c00fa001027980041c798003227980052
:102cdc00432798005427980077ff07000004a200b0
:102cec000004e000020032000040eb00b9003700a5
:102cfc000000eb00000f780010022900f10020000a
:102d0c002002070000502300c1002000ea06070043
:102d1c0010032900b0fe07000004a2000004e0002c
:102d2c00020032000040eb00aa00370050032900db
:102d3c00510220001302070000502300c1002000a4
:102d4c00dd06070010032900a3fe07000004a20003
:102d5c000004e000020032000040eb009d00370050
:102d6c000e80e8009e209000811f7800b10529009c
:102d7c00811f780009f70700e48757000e80e800f0
:102d8c001cf60700000f78009e0078000e80e8000b
:102d9c00fc01070000502300c1002000c6060700fc
:102dac00100329008cfe07000004a2000004e000c0
:102dbc00020032000040eb00860037004ec090004d
:102dcc000004e0002b0032000e80e800be209000d2
:102ddc00811f7800e1062900811f7800eff60700bb
:102dec00e48757000e80e80002f60700000f780019
:102dfc009e0078000e80e800e201070000502300de
:102e0c00c1002000ac0607001003290072fe070069
:102e1c000004a2000004e000020032000040eb00bd
:102e2c006c0037000e80e8002201200031082900d8
:102e3c00e3f507000e80e800eef50700000f7800c0
:102e4c009e0078000e80e800ce01070000502300a1
:102e5c00c100200098060700100329005efe070041
:102e6c000004a2000004e000020032000040eb006d
:102e7c00580037005009290011012000c10107003a
:102e8c0000502300c10020008b060700100329000e
:102e9c0051fe07000004a2000004e0000200320012
:102eac000040eb004b003700700a29004101200064
:102ebc00b401070000502300c10020007e0607006b
:102ecc001003290044fe07000004a2000004e000e7
:102edc00020032000040eb003e003700c00b29001e
:102eec0061012000a701070000502300c100200051
:102efc00710607001003290037fe07000004a2002a
:102f0c000004e000020032000040eb00310037000a
:102f1c000e80e800ce209000811f7800310d290032
:102f2c00811f78009df60700e48757000e80e800ab
:102f3c00b0f50700000f78009e0078000e80e800c6
:102f4c009001070000502300c10020005a06070022
:102f5c001003290020fe07000004a2000004e0007a
:102f6c00020032000040eb001a0037000e80e8002f
:102f7c00de209000811f7800510e2900811f7800ff
:102f8c0086f60700e48757000e80e80099f50700e5
:102f9c00000f78009e0078000e80e8007901070091
:102fac0000502300c1002000430607001003290035
:102fbc0009fe07000004a2000004e0000200320039
:102fcc000040eb0003003700fbfe07002bff07005f
:102fdc0010c0b3000080fa00000006000000fa00e8
:102fec00b5fe07000004e00008003200800f290045
:102ffc00610020006301070000202100a1072000d0
:10300c002d060700dafc070097fe07000080fa0087
:10301c00000006004600fa001027980021279800af
:10302c000000eb00000f7800f00f290011012000c8
:10303c005401070000502300c10020001e060700a9
:10304c0010032900e4fd07000004a2000004e000c6
:10305c00020032000040eb00630037001011290021
:10306c00710120004701070000502300c10020001f
:10307c001106070010032900d7fd07000004a20069
:10308c000004e000020032000040eb005600370064
:10309c0090122900110120003a0107000050230072
:1030ac00c10020000406070010032900cafd070018
:1030bc000004a2000004e000020032000040eb001b
:1030cc0049003700b0132900610120002d010700d1
:1030dc0000502300c1002000f70507001003290051
:1030ec00bdfd07000004a2000004e0000200320055
:1030fc000040eb003c0037000e80e8009e20900062
:10310c00811f780021152900811f780023f6070004
:10311c00e48757000e80e80036f50700000f7800b2
:10312c009e0078000e80e800160107000050230076
:10313c00c1002000e005070010032900a6fd0700d0
:10314c000004a2000004e000020032000040eb008a
:10315c00250037000e80e800ae209000811f78001b
:10316c0071162900811f78000cf60700e4875700c0
:10317c000e80e8001ff50700000f78009e00780015
:10318c000e80e800ff00070000502300c100200063
:10319c00c9050700100329008ffd07000004a200d9
:1031ac000004e000020032000040eb000e0037008b
:1031bc002018290061012000f200070000502300b4
:1031cc00c1002000bc0507001003290082fd070088
:1031dc000004a2000004e000020032000040eb00fa
:1031ec000100370010c0b3000080fa000000060098
:1031fc000000fa00000000000080fa000000060049
:10320c000000fa0080002000001188002222ef004c
:10321c0070062000401188009560a80021e2a800eb
:10322c002342a800c0812000c0408800c08120003b
:10323c00b0408800c0852000a0408800c0852000d8
:10324c0090408800d04080000010a000d040880042
:10325c00d04080000090a000d0408800d04080007a
:10326c000080a100d0408800d04080000000a10068
:10327c00d04088000080fa00000006000000fa0030
:10328c00c0852000a0408800c085200090408800a8
:10329c00d04080000010a000d0408800d0408000ba
:1032ac000000a100d04088000080fa000000060059
:1032bc00809fbe000200fa00d14080000020200058
:1032cc00008060000000e000020032009580a90040
:1032dc00250037008580a9000000eb00000f780066
:1032ec00190037001e0fe800c04080001040780025
:1032fc000080fb0020118800c04080000000e80026
:10330c00c0408800c1408000c0852000808f5000e4
:10331c0002003a00c0812000c0408800d0408000ec
:10332c000080a100d0408800c1408000b0408000e7
:10333c00808f500004003a00d04080000090a00024
:10334c00d0408800080037001e0078000000e00024
:10335c0005003c001111800000202000008060005e
:10336c000000e000dfff32000080fa004f00be00da
:10337c0000400600809fbe000200fa000000eb0037
:10338c00000f7800190037001e0fe80090408000f5
:10339c003111800081407800014878009040800015
:1033ac000000e8009040880091408000c09520000b
:1033bc00808f500002003a00c085200090408800a9
:1033cc00d04080000010a100d040880091408000c7
:1033dc00a0408000808f500004003a00d040800054
:1033ec000000a000d0408800070037001e007800c5
:1033fc000000e00004003c0010118000610060003f
:10340c000000e000e0ff3a008560a9000080fa00af
:10341c004f00be0000400600801f78000000fa003c
:10342c0010118000620060000000e000010032001a
:10343c002222a9008c20a9000080fa004f007800fd
:10344c00004006000200fa000040eb00004f78003c
:10345c00a0408000104f7800a04080000000e800e1
:10346c00a0408800a1408000c0952000808f5000b3
:10347c0002003a00c0852000a0408800a1408000d6
:10348c0090408000808f500003003a00d0408000b4
:10349c000010a000d0408800d04080000000a100a7
:1034ac00d04088001e4078000080fa000000060022
:1034bc000600fa00881f7800100798002107980072
:1034cc000000eb00000f780009003700d0408000ae
:1034dc00620060000000e0000a003a001e0090004c
:1034ec001e044000d7ff0700004c78001e0fe800b8
:1034fc002e0090009e007800808f5000f3ff390062
:10350c0001003700000000001e0078004f04780016
:10351c000080fa00000006000200fa00004f78005c
:10352c009580a900b04080001e487800b040800013
:10353c000000e800b0408800b1408000c085200049
:10354c00808f500002003a00c0812000b0408800fb
:10355c00d04080000090a100d0408800c140800085
:10356c00b0408000808f500003003a00d0408000b3
:10357c000080a000d04088009580a8000080fa0050
:10358c00000006000600fa001007980021079800ba
:10359c000000eb00000f78000a003700d1408000db
:1035ac0000102000008060000000e0000a003a00db
:1035bc001e0090001e004000104078001e0fe80016
:1035cc00d5ff07002e0090009e007800808f5000e1
:1035dc00f2ff390001003700000000001e007800e7
:1035ec000080fa00000006000200fa000000eb0068
:1035fc00000f7800d1408000001020000080600097
:10360c000000e000010032001e30a000d14080001c
:10361c0000202000008060000000e000010032006b
:10362c001e40a000d0408000610060000000e0005f
:10363c00010032001e00a000d0408000620060003b
:10364c000000e000020032001e20a0000100370044
:10365c001e10a0001e0078000080fa00000006007a
:10366c000200fa00000f7800a04080009e0040008d
:10367c00c0952000808f500008003600a0408000cc
:10368c009e004000c09520000000ea000080400031
:10369c00c18520006140780003003700a040800005
:1036ac001e004000104078000080fa000000060068
:1036bc000000fa00d0408000610060000000e000d3
:1036cc000f003a00a140800090408000808f500095
:1036dc0005003600a04080008000780090408000fb
:1036ec000080500007003700a04080008000780068
:1036fc0090408000008050000010b00001003700a6
:10370c000000eb000080fa00000006000000fa0048
:10371c00d140800000102000008060000000e0001c
:10372c000f003a00c1408000b0408000808f5000f4
:10373c0005003600c040800080007800b04080005a
:10374c000080500007003700c040800080007800e7
:10375c00b0408000008050000004b0000100370031
:10376c000000eb000080fa00000006000000fa00e8
:10377c00d04080000000d100614060000080fb0060
:10378c0000f0a7000000ea000000ea004f00de0095
:10379c00004078000080fa00000006000000fa00eb
:1037ac00d04080004800de00614060000080fb00db
:1037bc0000f0a7000000ea000000ea004f00de0065
:1037cc00004078000080fa00000006000000fa00bb
:1037dc00101180000080fa00000006000200fa00c0
:1037ec00004f78001e417800a180200082487800ac
:1037fc000080fa00000006000800fa0060479800fc
:10380c00f522a9006000b800008fbe0040128000b5
:10381c00404798006e409000004040005047980090
:10382c00de40900010c4b30000c0700050479800f8
:10383c005e4090000080fb004012880000000000f9
:10384c0000128000610060000000e000fcff32000c
:10385c0040128000404798006e409000e74f5000a7
:10386c009a003c0081408000002020000080600015
:10387c000000e00063003200814080000010200056
:10388c00008060000000e000330032004822ef00ae
:10389c000000000000128000610060000000e000e9
:1038ac00fcff320040128000404798004822ef0095
:1038bc000000000000128000610060000000e000c9
:1038cc00fcff3200401280008000eb001e0f400015
:1038dc005e9748001e01be004818dd00c810de00cf
:1038ec00810070004810dd00008fbe004822ef0000
:1038fc000000000000128000610060000000e00089
:10390c00fcff3200401280008000eb001e0f4000d4
:10391c005e9748001e01be004818dd00c810de008e
:10392c00810070004810dd00008fbe004822ef00bf
:10393c000000000000128000610060000000e00048
:10394c00fcff3200401280008000eb001e0f400094
:10395c005e974800860037004822ef000000000008
:10396c0000128000610060000000e000fcff3200eb
:10397c00401280008000eb001e0f40005e97480054
:10398c001e01be004818dd00c810de00810070006a
:10399c004810dd00008fbe004822ef000000000040
:1039ac0000128000610060000000e000fcff3200ab
:1039bc00401280008000eb001e0f40005e97480014
:1039cc001e01be004818dd00c810de00810070002a
:1039dc004810dd00008fbe004822ef000000000000
:1039ec0000128000610060000000e000fcff32006b
:1039fc00401280008000eb001e0f40005e974800d4
:103a0c005b0037004822ef0000000000001280002d
:103a1c00610060000000e000fcff320040128000fa
:103a2c008000eb00008fbe001e01be004818dd00b8
:103a3c00c810de00810070004810dd00008fbe0051
:103a4c004822ef00000000000012800061006000be
:103a5c000000e000fcff3200401280008000eb0010
:103a6c001e0f40005e9748001e01be004818dd0086
:103a7c00c810de00810070004810dd00008fbe0011
:103a8c004822ef000000000000128000610060007e
:103a9c000000e000fcff320081408000001020009c
:103aac00008060000000e000050032004012800041
:103abc008000eb001e0f40005e9748002c00370082
:103acc004012800040479800290037004822ef0040
:103adc000000000000128000610060000000e000a7
:103aec00fcff3200401280008000eb00008fbe0013
:103afc001e01be004818dd00c810de0081007000f9
:103b0c004810dd00008fbe004822ef0000000000ce
:103b1c0000128000610060000000e000fcff320039
:103b2c00401280008000eb001e0f40005e974800a2
:103b3c001e01be004818dd00c810de0081007000b8
:103b4c004810dd00008fbe004822ef00000000008e
:103b5c0000128000610060000000e000fcff3200f9
:103b6c00401280008000eb001e0f40005e97480062
:103b7c00f522a8001e00be000080fa00000006001e
:103b8c000200fa00881f78000040eb00004f78001c
:103b9c000b0037009e40780069c040001047980029
:103bac001e84fb001e40900013ff0700c241dd0085
:103bbc0042a82000028141000089be001e4fe8008f
:103bcc001e407800f64f5000f2ff36008054800003
:103bdc00915480004809dd004800de0000007100af
:103bec00c808de0000007800804088004f04780090
:103bfc000080fa00000006000000fa00b01320005c
:103c0c00101288004422ef00c00028000012880027
:103c1c000080fa00000006000400fa00000f780093
:103c2c001107980000000000001280006200600084
:103c3c000000e000fcff3a00111280000040200060
:103c4c00008060000000e00002003a000000eb0081
:103c5c000100370010002000e10f500004003a0072
:103c6c001e00780010007800401288000500370014
:103c7c001e007800104078000080fb004012880085
:103c8c000000000001128000000220000080600093
:103c9c000000e000fbff3a00111280000040200001
:103cac00008060000000e00002003a000000eb0021
:103cbc000100370010002000e10f500004003a0012
:103ccc001e009000411280000108780004003700ab
:103cdc0040128000804078001e009000014878005f
:103cec000080fa00000006001a00fa00200f98006d
:103cfc00310f9800420f98000000eb00000f780085
:103d0c000000eb00100798000000eb00000f98007b
:103d1c000000eb00100f98001112800000402000f2
:103d2c00008060000000e00002003a000000eb00a0
:103d3c000100370010002000700798007e009000f2
:103d4c00e10f500006003a002000200040079800c8
:103d5c003e0890000000d100300f980002003700a0
:103d6c0010002000400798002e0890000000e00092
:103d7c0005003a000000eb00600798007200470055
:103d8c002007980004003700ce00900061079800cf
:103d9c00ae089000210798004e0890000000e0004b
:103dac0005003a000000eb00500798007000470037
:103dbc003007980005003700ce009000510798009e
:103dcc00ce0890003107980000000000001280001f
:103ddc00620060000000e000fcff3a002d0037009c
:103dec001e009000e70f500013003e007e00900074
:103dfc00e10f500004003a002e00900010007800f3
:103e0c0040128800040037002e009000104078000b
:103e1c000080fb0040128800ae0090006e00900005
:103e2c0000804000200798001e0fe8001e00900044
:103e3c000000e8001007980001128000000220002a
:103e4c00008060000000e00012003a007e0090004c
:103e5c00e10f500004003a003e0090004112800037
:103e6c000108780004003700401280008040780080
:103e7c003e00900001487800be0090005e0090006b
:103e8c0000804000300798001e0090000000e90000
:103e9c00100798003e0890009e007800808f50001c
:103eac00cfff3900170037000112800000022000fc
:103ebc00008060000000e00012003a007e009000dc
:103ecc00e10f500004003a003e00900041128000c7
:103edc000108780004003700401280008040780010
:103eec003e00900001487800be0090005e009000fb
:103efc0000804000300798001e0090000000e90090
:103f0c00100798001e0090000000e000e6ff3a0049
:103f1c001e0078000080fa00000006000400fa0081
:103f2c00204798000e80e8008e0078003aff0700ca
:103f3c001e4078000080fa00000006000600fa001f
:103f4c00000f780011079800220798002e019000ae
:103f5c009e0090001e00780063ff07000080fa00ae
:103f6c00000006000000fa00111280000040200042
:103f7c00008060000000e00002003a000000eb004e
:103f8c0001003700100020000080fa00000006003d
:103f9c000000fa00001280000080fa000000060009
:103fac000000fa0060c02100800c8800f0012000a5
:103fbc00900c880010002000a00c88009621ef00c7
:103fcc009821ef00800c8000004078006740600072
:103fdc000080fb00604088000080fa0000000600b2
:103fec000000fa0020048000640060000000e00083
:103ffc00010032008440a9000080fa000000060095
:10400c000000fa00604080000040780067406000cb
:10401c000080fb0067006000820c800081ff2f0095
:10402c008100610001007000800c88000080fa00a3
:10403c00000006000000fa00800c80000000a100c7
:10404c000010a1000020a100800c88000080fa0064
:10405c00000006000200fa00000f78009e007800b5
:10406c00b10c88000080fa00000006000400fa0081
:10407c00000f7800110798009e007800b10c8800a2
:10408c009e009000a10c88000080fa000000060041
:10409c000400fa00000f7800110798009e007800c9
:1040ac00b10c88009e009000a10c88000080fa00e2
:1040bc00000006000400fa00000f780011079800b9
:1040cc009e007800b10c88009e009000a10c880026
:1040dc000080fa00000006000200fa00000f7800d1
:1040ec009e007800a10c88000080fa0000000600f9
:1040fc000200fa00000f78009e007800b10c8800d6
:10410c000080fa00000006000000fa002004800085
:10411c004200de00614060000080fb0000f0a70060
:10412c000000ea000000ea004f00de0000407800ca
:10413c000080fa00000006000400fa001007980046
:10414c001e0090000000e0000a003a00800c800085
:10415c004400de00614060000080fb0000f0a7001e
:10416c000000ea000000ea004f00de00004f78007b
:10417c0001003700000000001e4078000080fa00ab
:10418c00000006000200fa00000f78001e00780004
:10419c000000e00003003a009081a900000000003c
:1041ac0001003700000000000080fa00000006004b
:1041bc000000fa0092c1a8000080fa00000006007e
:1041cc000000fa00900c80004600de0061406000a8
:1041dc000080fb0000f0a7000000ea000000ea00ed
:1041ec004f00de00004078000080fa00000006005e
:1041fc000000fa0092c1a9000080fa00000006003d
:10420c000000fa00c422ef00cc22ef0000012000d5
:10421c00a0168800dc22ef00e422ef000002200050
:10422c0060178800f422ef00f06f2c000016880055
:10423c000080eb0040168800e00027008016880004
:10424c0070ff2f00c0168800f03f20000017880078
:10425c00b011210040178800f0082f00801788004b
:10426c005420ef005620ef005820ef005a20ef00aa
:10427c005c20ef005e20ef006c20ef006e20ef0062
:10428c007020ef007220ef007420ef007620ef001a
:10429c00c622ef00ce22ef00d622ef00de22ef0086
:1042ac00e622ef00ee22ef00f622ef002a23ef00c9
:1042bc00100c200060198800113a8000f00b2000cf
:1042cc000081600060042000710520002374200030
:1042dc008049780081497800824978000134800057
:1042ec00f00f2c0000806000003488002135800025
:1042fc00f00f2c0080806000000021000100700095
:10430c002035880081368000f00f2c008080600002
:10431c0000302000010070008036880021358000bc
:10432c0000fc2f0000806000f000b30020358800f6
:10433c00b136800000fc2f00008060002001b3002b
:10434c00b036880091368000f00f2c008080600021
:10435c00008020000100700090368800f13680004b
:10436c0000fc2f00008060000020a000f0368800c8
:10437c00a1368000f00f2c008080600000702000bf
:10438c0001007000a03688004135800000fc2f0031
:10439c0000806000a001b30040358800113a800015
:1043ac000004200001017000600420007105200051
:1043bc002374200080497800814978008249780074
:0843cc000080fa000000060069
:020000040000fa
:1043d400900b00002000000000000000080800000e
:1043e4000200000002000000ffff000012080000ad
:1043f4004a010000000000000a080000020000005a
:10440400000000000008000004000000000000009c
:104414000c08000002000000000000002e0b000049
:1044240040000000000000005c09000028010000ba
:104434000000000004080000040000000200000066
:10444400488f4c008f0000000e080000020000009e
:1044540000000000840a000060000000000000006a
:10446400100800000200000000000000ca0b000059
:1044740004000000020000000000ca000b0000005d
:10448400e40a00004a00000002000000303132005b
:1044940033343500363738003961620063646500af
:1044a40066676800696a6b006c6d6e006f707100fe
:1044b400727374007576770078797a0000000000d2
:1044c400211511000e0d0c000b0b0a000a0909003e
:1044d4000909090008080800080808000807070077
:1044e400070707000707070007070700070700007b
:1044f400ce0b00000400000000000000b00b000020
:104504001a00000002000000686a6c00747a4c0013
:104514000000010000020000040008000010000078
:10452400000020002b2d2300300000006e0b000043
:104534002200000002000000303132003334350024
:1045440036373800394142004344450046003000c4
:104554003132330034353600373839006162630054
:0c45640064656600000000007e248000fa
:020000040000fa
:104570000000fa000021ef00000120001008880070
:1045800000032800200888008460a9009460a80027
:104590000068ef000080fa00000006003600f80016
:1045a000809fbe00829fbe00849fbe00869fbe008b
:1045b0000000fa0023000700104080000000e8001f
:1045c0001040880010c0b30000e8b7008460a90064
:1045d0000080fa004f03be004f02be004f01be0034
:1045e0004f00be003600f900004006000200fa004d
:1045f000000f78009e007800110888000068ef0026
:104600000080fa00000006000000fa001008800098
:104610000080fa00000006000200fa00000f780097
:104620009e007800010888000068ef000080fa0012
:10463000000006000000fa00000880000080fa0078
:10464000000006000000fa000080fa0000000600ea
:104650000400fa001007980011408000010f780054
:104660001e0090009e007800808f500004003100f2
:104670001e0090000080ea001e004000020037008b
:104680001e0090001e0010000080fa0000000600ce
:104690000000fa000068ef009460a80005e1a8009f
:1046a0000080fa00000006000000fa0005e1a90001
:1046b0009460a9000080fa00000006000200fa00e1
:1046c0000180200091407800014f78001e40780062
:1046d0000004e000010032000068ef001e40780096
:1046e0000080fa00000006000000fa001040800080
:1046f0000080fa00000006000000fa000228ef0027
:104700000080fa00000006000000fa0055000700d3
:1047100003f90700f522a8001cfd070043f7070076
:10472000feff37000001fa006000b800008fbe00f5
:10473000e40047007d0009008018eb00e1f8070065
:104740008e007800a0192900aaf80700c9f8070010
:104750000080fa00000006000000fa00d9f8070007
:104760000004e00005003200411a2900d01a290097
:104770002bfa070013f9070043f907000080fa003d
:1047800000000600000f78009e007800414088007d
:10479000ffff37000000fa0000b920008007780012
:1047a00080ba2000000188000080fa0000000600a6
:1047b0003600f8008020a9000000eb00f1ff0700a0
:1047c0003600f800f3ff07008040a9001000200029
:1047d000ecff07003600f8008060a90020002000f0
:1047e000e8ff07003600f8008080a90030002000b4
:1047f000e4ff07000000fa00700580000000a00040
:104800000010a1000020a100700588002005800094
:1048100000c0a00000d0a10000e0a1002005880099
:10482000200680000040a0000050a1000060a10010
:1048300020068800500580000000a0000010a100a4
:104840000020a100500588004005800000c0a000a5
:1048500000d0a10000e0a100400588000080fa001f
:10486000000006000000fa0068fe0700e1ff0700f4
:1048700006000700e3fc0700ccfd07004bef070034
:104880003bff07000080fa00000006000000fa006d
:104890000001eb006004200071052000237420005b
:1048a000804978008149780082497800000023001f
:1048b000203a88004827ef004027ef000080fa00e8
:0448c00000000600ee
:020000040000fa
:1048c400f03fb1000180b10006003500ee0309009d
:1048d40000000000403fb1000180b100fbff3d003b
:1048e4001000b000203fb000020035000080090035
:0848f4000000000000000600b6
:020000040000fa
:0448fc0000000000b8
:020000040000fa
:020000040005f5
:0457f400ffff0000b3
:020000040000fa
:020000040005f5
:0457f8009d9300007d
:020000040000fa
:020000040005f5
:0457fc007f3e0000ec
:00000001FF
